:10000000F7C0000013C1000011C100000FC10000C3
:100010000DC100000BC1000009C1000007C10000B4
:1000200005C1000003C1000001C10000FFC00000C5
:10003000FDC00000FBC00000F9C00000F7C00000D8
:1000400020C30000F3C00000F1C00000EFC00000BA
:10005000EDC00000EBC00000E9C00000E7C00000F8
:10006000E5C00000E3C00000E1C00000DFC0000008
:10007000DDC00000DBC00000D9C00000D7C0000018
:10008000D5C00000D3C00000D1C00000036EDB3635
:100090003D9A9999993DABAAAA2A3E000000803F5B
:1000A000084AD73B3BCE016E84BCBFFDC12F3D6CDF
:1000B00074319ABD56833DDA3D00C77F11BED9E445
:1000C000BB4C3E916BAAAABE000000803F072C7A71
:1000D000A5BA6CC590DA3B9365FC8BBC53F810FD58
:1000E0003C5692834DBD879D3AB63DCBC9BF5BBEA2
:1000F00073DA0FC93F0000407A10F35A00A0724E25
:1001000018090010A5D4E80000E87648170000E4BC
:100110000B54020000CA9A3B000000E1F505000004
:1001200080969800000040420F000000A086010069
:100130000000102700000000E80300000000640039
:10014000000000000A0000000000010000000000A4
:100150002C76D888DC674F0823DFC1DFAE59E1B1C8
:10016000B796E5E3E453C63AE651997696E8E6C2D7
:100170008426EB898C9B62ED407C6FFCEFBC9C9FDE
:1001800040F2BAA56FA5F490055A2AF75C936B6C00
:10019000F9676DC11BFCE0E40D47FEF520E6B500F4
:1001A000D0ED902E0300943577050080841E080062
:1001B00000204E0A000000C80C333333330F986E12
:1001C00012831141EF8D2114893BE65516CFFEE6CF
:1001D000DB18D1844B381BF77C1D901DA4BBE42495
:1001E000203284725E228100C9F124ECA1E53D2712
:1001F00011241FBECFEFD0E1DEBFCDBF11E0A0E0E4
:10020000B1E0E2E3F3E200E00BBF02C007900D9221
:10021000AE30B107D9F721E0AEE0B1E001C01D92E8
:10022000A835B207E1F7B4D10C949711E9CE10923A
:1002300071008CE080937000089594EA90937400AC
:100240004FEF50E060E070E0E4E7F0E09081992348
:1002500034F04150510961097109C0F704C0452BC0
:10026000462B472B41F190917100987F983011F007
:10027000903119F58093730084E8809374008FEFB8
:1002800090E0A0E0B0E0E4E7F0E0208122232CF051
:100290000197A109B109C8F704C0892B8A2B8B2BC0
:1002A00071F090917100987F983159F081E090340D
:1002B00049F480E0089581E0089581E0089581E0A7
:1002C000089580E0089584E98093740080E090E0D0
:1002D000E4E7F0E0208124FF05C00196811521E0CC
:1002E0009207C1F708958093730084E880937400A7
:1002F0008FEF90E0A0E0B0E0E4E7F0E0208122237F
:100300002CF00197A109B109C8F704C0892B8A2BE9
:100310008B2B41F090917100987F81E0983219F415
:1003200080E0089581E0089584EC809374008FEF5D
:1003300090E0A0E0B0E0E4E7F0E0208122232CF0A0
:100340000197A109B109C8F704C0892B8A2B8B2B0F
:1003500019F080917300089580E0089584E88093F7
:1003600074008FEF90E0A0E0B0E0E4E7F0E02081DF
:1003700022232CF00197A109B109C8F704C0892BE9
:100380008A2B8B2B19F080917300089580E00895DB
:100390001092900083E389B9E5E9F0E080818660FE
:1003A00080838AB188618AB908955D9BFECF8CB93C
:1003B0000895CF93DF93EC018881882329F021965B
:1003C000F4DF89918111FCCFDF91CF9108954F9295
:1003D0005F926F927F928F929F92AF92BF92CF92D5
:1003E000DF92EF92FF92CF93DF9300D000D0CDB792
:1003F000DEB76B017C0160933E0170933F018093F7
:100400004001909341012091460130914701409174
:100410004801509149010E94CE0B4B015C01609351
:100420004601709347018093480190934901A701C9
:100430009601609132017091330180913401909165
:1004400035010E94CD0B2B013C0160933A01709362
:100450003B0180933C0190933D012091000130913C
:1004600001014091020150910301C701B6010E94B0
:10047000560E69837A838B839C832091120130917D
:1004800013014091140150911501C301B2010E9462
:10049000560E9B01AC0169817A818B819C810E94FF
:1004A000CE0B2B013C0120910E0130910F014091A8
:1004B000100150911101C501B4010E94560E9B011B
:1004C000AC01C301B2010E94CE0B60933601709360
:1004D00037018093380190933901C0923201D09254
:1004E0003301E0923401F09235010F900F900F909C
:1004F0000F90DF91CF91FF90EF90DF90CF90BF9062
:10050000AF909F908F907F906F905F904F900895E5
:10051000C39A0895C3980895CF92DF92EF92FF9205
:1005200020E030E044EB52E40E94AF0C20E030E0E9
:100530004FE753E40E94560E6B017C0120E030E04F
:100540004FE753E40E944B0E18169CF020E030E079
:100550004FE753ECC701B6010E94AB0C88238CF423
:100560000F2EC12CD12CFFE7EF2EF3ECFF2EF02D38
:1005700008C00F2EC12CD12CFFE7EF2EF3E4FF2E85
:10058000F02DC701B601FF90EF90DF90CF90089556
:10059000CF93DF93CDB7DEB766970FB6F894DEBF83
:1005A0000FBECDBFADD1F4DE87B7816087BF12BE6D
:1005B00083B7876083BF85B58A6685BDBF9A789407
:1005C000AE01475F5F4FBE016B5F7F4FCE0101966B
:1005D00048D720E030E044E353E46D817E818F8191
:1005E00098850E94560E26E53EE049E450E40E94BC
:1005F000AF0C6D837E838F839887E9DE6B017C016E
:1006000020E030E0A9016D817E818F8198850E9474
:100610004B0E18160CF47CDF20E030E0A9016D8150
:100620007E818F8198850E94AB0C88230CF472DF49
:10063000C701B60171DF6B017C0120E030E0A90148
:100640000E94AB0C88233CF4C701B6010E94170D31
:10065000619563BD05C0C701B6010E94170D63BD5A
:100660006D817E818F8198858E01035F1F4F22E00F
:100670004AE00E94130FC8019CDE88E091E099DEF9
:100680009FCF1F920F920FB60F9211240BB60F92AD
:100690002F933F934F935F936F937F938F939F938A
:1006A000AF93BF93EF93FF9306D6FF91EF91BF9166
:1006B000AF919F918F917F916F915F914F913F91FA
:1006C0002F910F900BBE0F900FBE0F901F9018959B
:1006D000AF92BF92DF92EF92FF920F931F93CF934F
:1006E000DF93662389F1C52FD42FD62E182F80EDE6
:1006F000A4DD812FF8DD83E08A95F1F7000081ED1C
:100700009CDD0D2F1C2FEE24EA94ED0CF12CEFEF65
:10071000EE1AFE0AC0E0D0E0AD2CB12CF1E0AF1A29
:10072000B108CA15DB0521F419DEF801808303C086
:10073000FBDDF801808321960F5F1F4FCE15DF058B
:1007400081F7CD2DC0DD01C0C0E08C2FDF91CF91AE
:100750001F910F91FF90EF90DF90BF90AF900895A1
:10076000AB0161E0B5CF0895EF92FF920F931F9315
:10077000CF93DF936623B1F07A01162FC82F80ED57
:100780005CDD8C2FB0DDE7016FEF610F062F10E00D
:100790000F5F1F4F0E0D1F1D8991A5DDC017D107DB
:1007A000D9F791DDDF91CF911F910F91FF90EF90DD
:1007B0000895CF93DF931F92CDB7DEB76983AE0163
:1007C0004F5F5F4F61E0D0DF0F90DF91CF910895D1
:1007D000FF920F931F93CF93DF931F92CDB7DEB796
:1007E000F62E8A01BE016F5F7F4FBADF21E030E055
:1007F00002C0220F331FFA94E2F799812923F801EE
:1008000020830F90DF91CF911F910F91FF9008955A
:10081000EF92FF920F931F93CF93DF931F92CDB769
:10082000DEB7442379F1F22E142F062FE82E198219
:10083000BE016F5F7F4F94DF882321F1402F50E08E
:10084000411B51094F5F5F4F81E090E002C0880F6C
:10085000991F1A95E2F70197042E02C0880F991F7D
:100860000A94E2F72F2D30E002C0220F331F4A9581
:10087000E2F7682F6095998169238223682B698349
:100880008E2D97DF0F90DF91CF911F910F91FF90E9
:10089000EF900895FF920F931F93CF93DF931F92D2
:1008A000CDB7DEB7182F062FF42EBE016F5F7F4F36
:1008B00057DFFF2059F021E030E0B90102C0660F98
:1008C000771F0A95E2F78981682B0BC021E030E0A1
:1008D000B90102C0660F771F0A95E2F7609599810A
:1008E00069236983812F65DF0F90DF91CF911F917D
:1008F0000F91FF90089540E066E08BE6CBCF08951E
:1009000096DC21E043E062E08BE682DF23E043E017
:1009100062E08AE17DDF64E089E14BDF23E042E0D1
:1009200064E08BE175DF20E042E064E08CE170DFA1
:10093000E2DF83B7876083BF87B7816087BF089591
:100940004F925F926F927F928F929F92AF92BF92DF
:10095000CF92DF92EF92FF920F931F93CF93DF938B
:10096000CDB7DEB7A4970FB6F894DEBF0FBECDBFEC
:100970006D877E878F87988B298B3A8B4B8B5C8B0F
:10098000ED8AFE8A0F8B188F20E030E0A901C601A6
:10099000B501E1D7811115C020E030E0A9016FA9B0
:1009A00078AD89AD9AADD7D781110BC020E030E08A
:1009B000A9016BAD7CAD8DAD9EADCDD7882309F47B
:1009C00000C2A6019501C601B5010E94560E2B0179
:1009D0003C012FA938AD49AD5AADCA01B9010E94F9
:1009E000560E69837A838B839C839B01AC01C30180
:1009F000B201D4D66D8F7E8F8F8F98A32BAD3CAD77
:100A00004DAD5EADCA01B9010E94560E698F7A8F55
:100A10008B8F9C8F29813A814B815C81C301B2010C
:100A2000BDD62B013C01298D3A8D4B8D5C8DC301C8
:100A3000B201B4D60E94BD0E2B013C019B01AC015A
:100A4000C601B5018CD769837A838B839C83A3010C
:100A500092016FA978AD89AD9AAD81D76D837E8300
:100A60008F839887A30192016BAD7CAD8DAD9EAD58
:100A700076D769877A878B879C8760912A017091E6
:100A80002B0180912C0190912D0120912201309118
:100A90002301409124015091250180900401909000
:100AA0000501A0900601B0900701409026015090EA
:100AB000270160902801709029010E94560E6B0159
:100AC0007C01A3019201C501B4010E94560E9B0155
:100AD000AC01C701B60161D6698F7A8F8B8F9C8F6D
:100AE00060910401709105018091060190910701C8
:100AF00020912A0130912B0140912C0150912D0120
:100B00008090260190902701A0902801B0902901A3
:100B100040902201509023016090240170902501A3
:100B20000E94560E6B017C01A3019201C501B40124
:100B30000E94560E9B01AC01C701B6012FD66D8FE6
:100B40007E8F8F8F98A36091040170910501809131
:100B50000601909107012091040130910501409117
:100B60000601509107018090220190902301A090EE
:100B70002401B09025014090220150902301609003
:100B80002401709025010E94560E20E030E040E0E4
:100B90005FE303D66B017C01A3019201C501B4019F
:100BA0000E94560E9B01AC01C701B601F7D56B013F
:100BB0007C019B01AC016D817E818F8198850E94B3
:100BC000560E4B015C012D8D3E8D4F8D58A16985D0
:100BD0007A858B859C850E94560E9B01AC01C501D0
:100BE000B401DBD569A37AA38BA39CA3298D3A8D8D
:100BF0004B8D5C8D69857A858B859C850E94560E10
:100C00004B015C01A701960169817A818B819C81EE
:100C10000E94560E9B01AC01C501B401BED52B014B
:100C20003C012D8D3E8D4F8D58A169817A818B813C
:100C30009C810E94560E6B017C01298D3A8D4B8D53
:100C40005C8D6D817E818F8198850E94560E9B01FF
:100C5000AC01C701B601A1D54B015C01C0901E01DA
:100C6000D0901F01E0902001F09021012DEC3CEC90
:100C70004CE45EE369A17AA18BA19CA10E94560E6F
:100C80002AE83BE446E85CE30E94560EA701960181
:100C900085D560931E0170931F018093200190936E
:100CA0002101C0901A01D0901B01E0901C01F0902E
:100CB0001D012DEC3CEC4CE45EE3C301B201F6D720
:100CC0002AE83BE446E85CE3F1D7A701960166D544
:100CD00060931A0170931B0180931C0190931D0176
:100CE000C0901601D0901701E0901801F090190102
:100CF0002DEC3CEC4CE45EE3C501B401D7D72AE807
:100D00003BE446E85CE3D2D7A701960147D5609360
:100D10001601709317018093180190931901609147
:100D20001E0170911F0180912001909121012D855C
:100D30003E854F85588932D56D837E838F83988712
:100D400060911A0170911B0180911C0190911D010D
:100D500029893A894B895C8921D569877A878B876C
:100D60009C876091160170911701809118019091F4
:100D700019012D893E894F89588D10D56B017C0151
:100D800029A13AA14BA15CA16D817E818F819885BB
:100D900005D56D877E878F87988BA3019201698522
:100DA0007A858B859C85FAD4698B7A8B8B8B9C8B0F
:100DB000A5019401C701B601F1D46D8B7E8B8F8B99
:100DC000988F2AE83BE446E05CE36D857E858F855D
:100DD00098896CD76D837E838F8398872AE83BE45C
:100DE00046E05CE369897A898B899C895FD769874A
:100DF0007A878B879C872AE83BE446E05CE36D8931
:100E00007E898F89988D52D76D877E878F87988B43
:100E10008091040190910501A0910601B091070114
:100E2000898B9A8BAB8BBC8B80902A0190902B0185
:100E3000A0902C01B0902D01809126019091270166
:100E4000A0912801B09129018D8B9E8BAF8BB88F1B
:100E50004090220150902301609024017090250160
:100E6000C0900401D0900501E0900601F0900701C8
:100E7000C501B40190582D813E814F81588516D708
:100E800069837A838B839C8329853A854B855C852E
:100E90006D897E898F89988D09D79B01AC01698105
:100EA0007A818B819C8179D469837A838B839C83BB
:100EB0002D853E854F855889C301B201F7D69B0128
:100EC000AC0169817A818B819C8167D4A7019601ED
:100ED00065D460930401709305018093060190939B
:100EE00007014090220150902301609024017090EE
:100EF0002501C0902A01D0902B01E0902C01F090A8
:100F00002D012D813E814F81588569897A898B8990
:100F10009C89CCD669837A838B839C832D853E857F
:100F20004F8558896D897E898F89988DBFD69B01A1
:100F3000AC0169817A818B819C8130D469837A8309
:100F40008B839C8329853A854B855C85C301B201DF
:100F5000ADD69B01AC0169817A818B819C811DD4C6
:100F6000A70196011BD460932A0170932B018093F3
:100F70002C0190932D01409022015090230160900C
:100F8000240170902501C0902601D0902701E090A7
:100F90002801F090290129853A854B855C8569896E
:100FA0007A898B899C8982D669837A838B839C8397
:100FB0002D853E854F855889C501B40177D69B01A3
:100FC000AC0169817A818B819C81E7D369837A83C3
:100FD0008B839C832D813E814F815885C301B20153
:100FE00065D69B01AC0169817A818B819C81D6D3C6
:100FF000A7019601D3D360932601709327018093B4
:10100000280190932901C0902201D0902301E09003
:101010002401F09025012D853E854F8558896989E9
:101020007A898B899C8942D62B013C0129853A8596
:101030004B855C85C501B40139D69B01AC01C30168
:10104000B201ACD34B015C012D813E814F815885AB
:101050006D897E898F89988D29D69B01AC01C50148
:10106000B4019BD3A701960199D360932201709399
:101070002301809324019093250140900401509016
:1010800005016090060170900701C0900401D090A6
:101090000501E0900601F090070180912A019091EE
:1010A0002B01A0912C01B0912D018D839E83AF83E4
:1010B000B88780912A0190912B01A0912C01B091C9
:1010C0002D0189879A87AB87BC87809126019091F3
:1010D0002701A0912801B09129018D879E87AF87B4
:1010E000B88B8091260190912701A0912801B091A1
:1010F0002901898B9A8BAB8BBC8B809022019090BD
:101100002301A0902401B0902501809122019091AB
:101110002301A0912401B09125018D8B9E8BAF8B73
:10112000B88FA7019601C301B201C0D569837A8344
:101130008B839C8329853A854B855C856D817E8177
:101140008F819885B3D59B01AC0169817A818B81B0
:101150009C8124D369837A838B839C8329893A89F0
:101160004B895C896D857E858F8598899FD59B018C
:10117000AC0169817A818B819C8110D369837A83E8
:101180008B839C83A7019601C301B2018FD56B01AC
:101190007C0129853A854B855C856D817E818F81B7
:1011A000988584D59B01AC01C701B601F7D26B01CC
:1011B0007C0129893A894B895C896D857E858F857B
:1011C000988974D59B01AC01C701B601E7D26B01C8
:1011D0007C012D893E894F89588DC501B40166D5A2
:1011E0009B01AC01C701B601D9D2C7D56B017C0107
:1011F00060910401709105018091060190910701B1
:10120000A7019601ACD3609304017093050180930C
:1012100006019093070160912A0170912B01809142
:101220002C0190912D01A701960199D360932A0179
:1012300070932B0180932C0190932D0160912601D6
:10124000709127018091280190912901A7019601B1
:1012500086D3609326017093270180932801909391
:1012600029016091220170912301809124019091C4
:101270002501A701960173D3609322017093230186
:101280008093240190932501A4960FB6F894DEBFB5
:101290000FBECDBFDF91CF911F910F91FF90EF90C7
:1012A000DF90CF90BF90AF909F908F907F906F9086
:1012B0005F904F9008954F925F926F927F928F92BE
:1012C0009F92AF92BF92CF92DF92EF92FF920F93D5
:1012D0001F93CF93DF93CDB7DEB728970FB6F8945F
:1012E000DEBF0FBECDBF4AE451E060E08AE370DAB2
:1012F00080914A01811105C083E08A95F1F70000D1
:10130000F2CF4AE451E06EE08BE3E2D9EAE4F1E0A7
:1013100080816181028193801481858060847184E1
:1013200052844384E484F58470E0782B072E000C0B
:10133000880B990BAFD320E030E040E858E3B6D4F7
:101340005B016C016F2D70E07E29635E7F4F072E7D
:10135000000C880B990B9ED323E333E343E851E45D
:10136000FED224E33AEF4EE85CE3A0D469837A83AB
:101370008B839C83642D70E0752969507109072E59
:10138000000C880B990B86D323E333E343E851E445
:10139000E6D224E33AEF4EE85CE388D46D837E83A3
:1013A0008F839887672D70E07629665D7F4F072EC3
:1013B000000C880B990B6ED323E333E343E851E42D
:1013C000CED224E33AEF4EE85CE370D42B013C012B
:1013D000682D70E0712B072E000C880B990B5AD3E7
:1013E00020E030E040E858E361D49F938F937F93EF
:1013F0006F93692D70E0702B072E000C880B990BF2
:1014000049D320E030E040E858E350D49F938F93D5
:101410007F936F93E980FA800B811C812D813E813F
:101420004F815885C301B2018BDA0FB6F894DEBF45
:101430000FBECDBF28960FB6F894DEBF0FBECDBF4E
:10144000DF91CF911F910F91FF90EF90DF90CF90A0
:10145000BF90AF909F908F907F906F905F904F90D4
:1014600008952F923F924F925F926F927F928F9248
:101470009F92AF92BF92CF92DF92EF92FF920F9323
:101480001F93CF93DF93CDB7DEB762970FB6F89473
:10149000DEBF0FBECDBF1C018B015A8B498B609103
:1014A00004017091050180910601909107018090DF
:1014B000040190900501A0900601B0900701C09032
:1014C0002A01D0902B01E0902C01F0902D01209169
:1014D0002A0130912B0140912C0150912D012D8337
:1014E0003E834F83588720912A0130912B014091F0
:1014F0002C0150912D0129833A834B835C832091E9
:101500002601309127014091280150912901298716
:101510003A874B875C8740900401509005016090AA
:101520000601709007012091220130912301409122
:101530002401509125012D873E874F87588B9B01B1
:10154000AC012CD1A5019401B1D34B015C01A701E1
:101550009601C701B60122D12D813E814F81588568
:10156000A5D39B01AC01C501B40118D120E030E046
:1015700040E85FE312D16B017C0129813A814B8104
:101580005C81CA01B9010AD129853A854B855C8500
:101590008DD34B015C01A3019201C301B201FED0C6
:1015A0002D853E854F85588981D39B01AC01C501AE
:1015B000B401F3D0A70196017BD1E989FA89608350
:1015C00071838283938360912A0170912B018091B2
:1015D0002C0190912D018090220190902301A090E8
:1015E0002401B0902501C0900401D0900501E09045
:1015F0000601F0900701409026015090270160906D
:101600002801709029019B01AC01C8D0A50194016B
:101610004DD34B015C01A7019601C701B601BED0B5
:10162000A301920143D39B01AC01C501B401B6D023
:1016300019D1DC01CB01B058F80180839183A283DA
:10164000B38360910401709105018091060190912E
:1016500007018090040190900501A0900601B090D0
:101660000701C0902201D0902301E0902401F09066
:1016700025012091220130912301409124015091B4
:1016800025012D833E834F83588720912601309179
:101690002701409128015091290129833A834B83E6
:1016A0005C832091220130912301409124015091CB
:1016B000250129873A874B875C8740900401509029
:1016C0000501609006017090070120912A01309178
:1016D0002B0140912C0150912D012D873E874F8782
:1016E000588B9B01AC015AD0A5019401DFD24B016C
:1016F0005C01A7019601C701B60150D02D813E8142
:101700004F815885D3D29B01AC01C501B40146D0AD
:1017100020E030E040E85FE340D06B017C012981AC
:101720003A814B815C81CA01B90138D029853A855B
:101730004B855C85BBD24B015C01A3019201C301C7
:10174000B2012CD02D853E854F855889AFD29B01A3
:10175000AC01C501B40121D0A7019601A9D0F101C6
:10176000608371838283938362960FB6F894DEBFA1
:101770000FBECDBFDF91CF911F910F91FF90EF90E2
:10178000DF90CF90BF90AF909F908F907F906F90A1
:101790005F904F903F902F9008955058BB27AA27F5
:1017A0000ED03FC230D230F035D220F031F49F3F1E
:1017B00011F41EF4EFC10EF4E095E7FBE5C1E92F4B
:1017C00041D280F3BA17620773078407950718F0B0
:1017D00071F49EF559C20EF4E0950B2EBA2FA02D90
:1017E0000B01B90190010C01CA01A0011124FF27CE
:1017F000591B99F0593F50F4503E68F11A16F040C9
:10180000A22F232F342F4427585FF3CF46953795C7
:101810002795A795F0405395C9F77EF41F16BA0B8C
:10182000620B730B840BBAF09150A1F0FF0FBB1F3A
:10183000661F771F881FC2F70EC0BA0F621F731F83
:10184000841F48F4879577956795B795F7959E3FE0
:1018500008F0B3CF9395880F08F09927EE0F97956E
:10186000879508959F939F77EEE389379E0720F42D
:10187000ECE8F0E0B7D109C048D19058A2EA2AEDCF
:101880003FE049EC5FE39BDFCCD10F9007FC905821
:101890000895B9D158F080E891E009F49EEFBAD1EB
:1018A00028F040E851E059F45EEF09C073C1ECC183
:1018B000E92FE078C7D168F3092E052AC1F326176E
:1018C00037074807590738F00E2E07F8E02569F06A
:1018D000E025E0640AC0EF6307F8009407FADB0133
:1018E000B9019D01DC01CA01AD01EF9347D099D147
:1018F0000AD05F91552331F02BED3FE049E450FDD4
:1019000049EC4CCF0895DF93DD27B92FBF7740E82E
:101910005FE31616170648075B0710F4D92FBFD1EF
:101920009F938F937F936F9366D2E0EAF0E035D177
:1019300078D12F913F914F915F91C4D1DD2349F030
:101940009058A2EA2AED3FE049EC5FE3D0785D27AA
:1019500036DFDF9166C1F4D008F481E008950CD041
:1019600060C158D140F04FD130F021F45F3F19F001
:101970000BC151118AC10EC165D198F39923C9F3E6
:101980005523B1F3951B550BBB27AA276217730785
:10199000840738F09F5F5F4F220F331F441FAA1F39
:1019A000A9F333D00E2E3AF0E0E830D091505040F9
:1019B000E695001CCAF729D0FE2F27D0660F771FA7
:1019C000881FBB1F261737074807AB07B0E809F089
:1019D000BB0B802DBF01FF2793585F4F2AF09E3F1E
:1019E000510568F0D1C051C15F3FECF3983EDCF384
:1019F000869577956795B795F7959F5FC9F7880F97
:101A0000911D9695879597F90895E1E0660F771FE8
:101A1000881FBB1F621773078407BA0720F0621B79
:101A2000730B840BBA0BEE1F88F7E095089504D072
:101A30006894B1112AC108950DD188F09F5790F094
:101A4000B92F9927B751A0F0D1F0660F771F881FE3
:101A5000991F1AF0BA95C9F712C0B13081F014D1AC
:101A6000B1E0089511C1672F782F8827B85F39F04A
:101A7000B93FCCF3869577956795B395D9F73EF442
:101A800090958095709561957F4F8F4F9F4F0895EA
:101A9000E89409C097FB3EF4909580957095619508
:101AA0007F4F8F4F9F4F9923A9F0F92F96E9BB27BE
:101AB0009395F695879577956795B795F111F8CF3A
:101AC000FAF4BB0F11F460FF1BC06F5F7F4F8F4FA5
:101AD0009F4F16C0882311F096E911C0772321F09B
:101AE0009EE8872F762F05C0662371F096E8862F33
:101AF00070E060E02AF09A95660F771F881FDAF78A
:101B0000880F9695879597F90895DF93CF931F9344
:101B10000F938B01EC01EDECF0E03FD082D0980107
:101B2000AE018B01EC0160E070E080E89FE335DE00
:101B300024D19801AE010F911F91CF91DF91C2C0C6
:101B4000990F0008550FAA0BE0E8FEEF16161706CE
:101B5000E807F907C0F012161306E407F50798F036
:101B6000621B730B840B950B39F40A2661F0232B4F
:101B7000242B252B21F408950A2609F4A140A695CB
:101B80008FEF811D811D089597F99F6780E870E0B0
:101B900060E008959FEF80EC0895DF93CF931F934B
:101BA0000F93FF92EF92DF927B018C01689405C046
:101BB000DA2EEF0187D0FE01E894A59125913591A9
:101BC00045915591AEF3EF01FADDFE019701A801B1
:101BD000DA9479F7DF90EF90FF900F911F91CF91FA
:101BE000DF9108959F938F937F936F93FF93EF936C
:101BF0009B01AC015BD0EF91FF91CFDF2F913F9123
:101C00004F915F9153C000240A94161617061806C8
:101C10000906089500240A941216130614060506F0
:101C20000895092E0394000C11F4882352F0BB0F81
:101C300040F4BF2B11F460FF04C06F5F7F4F8F4FE4
:101C40009F4F089557FD9058440F551F59F05F3F1F
:101C500071F04795880F97FB991F61F09F3F79F0CE
:101C600087950895121613061406551FF2CF469550
:101C7000F1DF08C0161617061806991FF1CF8695D2
:101C80007105610508940895E894BB2766277727B6
:101C9000CB0197F9089554DF08F48FEF08959B0165
:101CA000AC0160E070E080E89FE359CE0BD0B9CF83
:101CB000AADF28F0AFDF18F0952309F065CF6ACFCF
:101CC0001124E3CFBFDFA0F3959FD1F3950F50E030
:101CD000551F629FF001729FBB27F00DB11D639FDE
:101CE000AA27F00DB11DAA1F649F6627B00DA11D84
:101CF000661F829F2227B00DA11D621F739FB00D2A
:101D0000A11D621F839FA00D611D221F749F332799
:101D1000A00D611D231F849F600D211D822F762F32
:101D20006A2F11249F5750408AF0E1F088234AF02F
:101D3000EE0FFF1FBB1F661F771F881F915050407B
:101D4000A9F79E3F510570F01FCF9FCF5F3FECF387
:101D5000983EDCF3869577956795B795F795E79567
:101D60009F5FC1F7FE2B880F911D9695879597F978
:101D7000089511F40EF40ECF41C06CDFD0F3992317
:101D8000D9F3CEF39F57550B87FF46D00024A0E62A
:101D900040EA900180585695979528F4805C660F2C
:101DA000771F881F20F026173707480730F4621B7B
:101DB000730B840B202931294A2BA695179407947D
:101DC000202531254A2758F7660F771F881F20F0F6
:101DD00026173707480730F4620B730B840B200D6E
:101DE000311D411DA09581F7B901842F9158880FAD
:101DF0009695879508959B01AC0158CF9F3F31F090
:101E0000915020F4879577956795B795880F911D28
:101E10009695879597F9089591505040660F771FD2
:101E2000881FD2F70895EF920F931F93CF93DF93FC
:101E3000E80147FD02C034E001C034E1E42F440F63
:101E4000FF0BF7FF03C0F195E195F109E32E022F97
:101E50002E2FAE0107D0CE01DF91CF911F910F91B0
:101E6000EF9008954F925F926F927F929F92AF9200
:101E7000BF92CF92DF92EF92FF920F931F93CF9377
:101E8000DF93CDB7DEB729970FB6F894DEBF0FBE4C
:101E9000CDBF6A01122FB02E2BE3201720F0FF24B4
:101EA000F394F00E02C0BCE3FB2E0F2D27E0AE0131
:101EB0004F5F5F4F64D1AC018981982F9970913049
:101EC00031F0E1FC06C0E0FE06C090E205C09DE2F4
:101ED00003C09BE201C090E0EE2DE07183FF3CC0A7
:101EE000911102C083E001C084E0811718F4212F12
:101EF000281B01C020E0E1110BC0F601822F30E267
:101F0000882319F031938150FBCFC20ED11C20E001
:101F1000992329F0D6019C93F60131966F01C601F1
:101F20000396E2FE0AC03EE4D6013C9341E41196DA
:101F30004C93119712963C9306C03EE6F60130830F
:101F400041E641833283FC01322F40E2332309F41E
:101F500042C041933150FACF82FF44C0911102C078
:101F600083E001C084E0811718F4212F281B01C0F1
:101F700020E0E1110BC0F601822F30E2882319F036
:101F800031938150FBCFC20ED11C20E0992329F060
:101F9000D6019C93F60131966F01C6010396E2FECD
:101FA0000BC039E4D6013C933EE411963C93119763
:101FB00036E412963C9307C039E6F60130833EE6DC
:101FC000318336E63283FC01322F40E2332319F0AD
:101FD00041933150FBCFFC01E20FF11D10828EEFD7
:101FE0009FEFB7C0F1E0911101C0F0E06F2F70E0FA
:101FF0001416150624F49A012F5F3F4F02C021E00A
:1020000030E0260F371FBB2029F06B2D70E06F5F8B
:102010007F4F02C060E070E0260F371F612F70E035
:10202000261737071CF4121B212F01C020E03E2D7C
:10203000387159F4D601322F60E2332319F06D93D1
:102040003150FBCFC20ED11C20E0FF2331F0D6016E
:102050009C93B6016F5F7F4F6B01E1110BC0F601DE
:10206000922F30E3992319F031939150FBCFC20E98
:10207000D11C20E09F2D940F3A81782F7071A72EEC
:1020800084FF03C0313309F49150191624F49930B8
:1020900018F098E001C091E0E42F852F57FF02C0AF
:1020A000E0E080E06E2F782FE0E0F0E0AEE29A2EE4
:1020B0003A01691A71082A01461A570A0B2D10E0D5
:1020C0001195019511096F3F8FEF780729F4D6011B
:1020D0009C92C60101966C014617570784F066165C
:1020E00077066CF47F01E40CF51CA1E0B0E0AC0FC6
:1020F000BD1FEA0EFB1ED7011196BC9002C090E3F3
:10210000B92E615071093196C60101967C016017A4
:10211000710724F0D601BC926C01D5CF6417750706
:1021200041F4363320F4353321F4A11002C081E3A9
:10213000B82EF601B082F701822F90E2882319F0C1
:1021400091938150FBCFF701E20FF11D108280E0E7
:1021500090E029960FB6F894DEBF0FBECDBFDF9199
:10216000CF911F910F91FF90EF90DF90CF90BF9094
:10217000AF909F907F906F905F904F900895283020
:1021800008F027E03327DA01990F311D87FD9160B0
:1021900000966105710539F432602E5F3D9330E39E
:1021A0002A95E1F708959F3F30F080387105610569
:1021B00009F03C5F3C5F3D93913008F08068911DD1
:1021C000DF93CF931F930F93FF92EF92192F987F76
:1021D0009695E92F96959695E90FFF27E05BFE4FC0
:1021E00099273327EE24FF24A701E70105900894DF
:1021F000079428F4360FE71EF81E491F511D660F7D
:10220000771F881F991F0694A1F70590079428F45B
:10221000E70EF81E491F561FC11D770F881F991F13
:10222000661F0694A1F70590079428F4F80E491F3D
:10223000561FC71FD11D880F991F661F771F069451
:10224000A1F70590079420F4490F561FC71FD81F08
:10225000990F661F771F881F0694A9F78491109520
:10226000177041F0D695C79557954795F794E79421
:102270001A95C1F7E6EFF0E0689415901591359145
:102280006591959105907FE27395E118F10A430BF2
:10229000560BC90BD009C0F7E10CF11E431F561FA6
:1022A000C91FD01D7EF4703311F48A95E6CFE894EF
:1022B000015030F0080F0AF40027021708F4202F0D
:1022C0002395022F7A3328F079E37D932A95E9F755
:1022D00010C07D932A9589F6069497956795379552
:1022E00017951794E118F10A430B560BC90BD00947
:1022F00098F023957E9173957A3308F070E37C9380
:102300002013B8F77E9170617D9330F0839571E36F
:102310007D9370E32A95E1F71124EF90FF900F91E0
:102320001F91CF91DF91992787FD90950895F8949B
:02233000FFCFDD
:0E2332000000803F0000803F2020202020007F
:00000001FF
